:020000040000FA
:04000000D3EF21F029
:08000800056ED8CF06F0E0CF31
:1000100007F00001E9CF0DF0EACF08F0E1CF09F0D9
:10002000E2CF0AF0D9CF0BF0DACF0CF0F3CF14F017
:10003000F4CF15F0FACF16F000C00FF001C010F0A9
:1000400002C011F003C012F004C013F09DA22CEF07
:1000500000F09EB278EF02F0F2A632EF00F0F2B0BC
:1000600014EF02F09DAA38EF00F09EBA8EEF02F076
:100070000FC000F010C001F011C002F012C003F078
:1000800013C004F00E8E0DC0E9FF08C0EAFF09C0DE
:10009000E1FF0AC0E2FF0BC0D9FF0CC0DAFF14C0B9
:1000A000F3FF15C0F4FF16C0FAFF055007C0E0FFCC
:1000B00006C0D8FF1000F2CF0EF0F29EF76AD00F04
:1000C000F66E000EF7220900F5500EBEF28E1200F9
:1000D000544F54414C20504152434F2E0000F2CF18
:1000E0000EF0F29EF76AF80FF66E000EF722090086
:1000F000F5500EBEF28E12004768756C616D204D92
:10010000757374616661204B6572696F2050657408
:10011000726F6C65756D2053657276696365732EB9
:100120000000F2CF0EF0F29EF76A3C0FF66E010E61
:10013000F7220900F5500EBEF28E12005265746F60
:100140006465726F20427573205465726D696E61CB
:100150006C2E0000F2CF0EF0F29EF76A6E0FF66E74
:10016000010EF7220900F5500EBEF28E12006C61EE
:10017000726B616E612E0000F2CF0EF0F29EF76A94
:10018000920FF66E010EF7220900F5500EBEF28EA8
:10019000120044494553454C2E00F2CF0EF0F29E1A
:1001A000F76AB40FF66E010EF7220900F5500EBE85
:1001B000F28E12004E6F7A656C204E6F3130202027
:1001C0000000F2CF0EF0F29EF76ADC0FF66E010E21
:1001D000F7220900F5500EBEF28E1200536C6970C2
:1001E00020204E6F2E202000F2CF0EF0F29EF76AF4
:1001F000020FF66E020EF7220900F5500EBEF28EC7
:100200001200446174653A00F2CF0EF0F29EF76A74
:10021000220FF66E020EF7220900F5500EBEF28E86
:10022000120056656869636C65204E6F2E202000B1
:10023000F2CF0EF0F29EF76A4A0FF66E020EF72228
:100240000900F5500EBEF28E1200414D4F554E542E
:10025000202052732E3A20200000F2CF0EF0F29EA2
:10026000F76A740FF66E020EF7220900F5500EBE03
:10027000F28E12005154592E204C69742E20203ACF
:1002800020200000F2CF0EF0F29EF76A9E0FF66E6D
:10029000020EF7220900F5500EBEF28E12005241F6
:1002A0005445202F204C69742E3A20200000F2CFB4
:1002B0000EF0F29EF76AC80FF66E020EF7220900E2
:1002C000F5500EBEF28E1200436F6D706C61696E58
:1002D0007420616E642073756767657374696F6EEF
:1002E0002E00F2CF0EF0F29EF76AFC0FF66E020EB1
:1002F000F7220900F5500EBEF28E12004D6F6220FB
:100300003A2020303333352D333339343439380003
:10031000F2CF0EF0F29EF76A2A0FF66E030EF72266
:100320000900F5500EBEF28E120032342F372048ED
:100330006F75727320536572766963652E00F2CF14
:100340000EF0F29EF76A580FF66E030EF7220900C0
:10035000F5500EBEF28E12005468616E6B20796FFC
:10036000752E20506C6561736520436F6D6520614B
:100370006761696E2E00006A016A026A036AFF6B98
:100380000101006B016B026B0001FE51FD11FC11BC
:10039000FB1146E0200E0101036FD8900001F737F2
:1003A000F837F937FA37FF370101003701370237DD
:1003B0000001FE510101025D0EE10001FD5101014C
:1003C000015D09E10001FC510101005D04E1000152
:1003D000FB51FF5D01011DE30001FB51FF5FFC517B
:1003E000D8A0FC3D01D003D00101005F0001FD5108
:1003F000D8A0FD3D01D003D00101015F0001FE51F5
:10040000D8A0FE3D01D003D00101025F0001D880D9
:1004100001010036013602360336032FBED7000134
:10042000EA6AFF0EE96E000C006A81BE0082A651E6
:100430000018020B5AE026B803D0A69381BEA6830B
:10044000026A036A295070262A50712202507222D1
:100450000350732273C0FAF072C0F9F071C0F8F063
:1004600070C0F7F0FE6BFD6BFC6B640EFB6F83DFFF
:1004700000C03FF03F5239E073C0FAF072C0F9F0AB
:1004800071C0F8F070C0F7F0FE6BFD6BFC6B640E92
:10049000FB6F71DFEFCF70F0ECCF71F0ECCF72F04B
:1004A000ECCF73F03F505026000E512252225322BF
:1004B0003F505C26000E5D225E225F2253C0FAF0A0
:1004C00052C0F9F051C0F8F050C0F7F0FE6BFD6B70
:1004D000FC6B640EFB6F4FDFEFCFF3F0ECCFF4F06B
:1004E000ECCFF5F0ECCFF6F0A787F29038EF00F004
:1004F000A22BA251030803E28C808C9A8A869E92DA
:1005000038EF00F09EAAFED7ABCF19F0AECF01F0C6
:1005100019A202D0AB98AB889AEF02F0036AB051EF
:10052000AB0FE96E000E0320EA6EEACFF6F0E9CFDA
:10053000F5F0E8D7F6C0EAFFF5C0E9FF01C0EFFF2C
:10054000B0510308D8B0B02BA7899E9A38EF00F0BD
:10055000DC6BDC5107080FE3DBAF02D0898401D0EC
:100560008994DB478986040E006E002EFED700D0EA
:100570008996DC2BEED7000C010ED26FD2510F08FA
:1005800028E38998036AD251C10FE96E000E032057
:10059000EA6EEF50100DF3CFD4F0D4C0DBF0D8DF0B
:1005A000036AA451B10FE96E000E0320EA6EEFCF8B
:1005B000D3F0D3C0DBF0CCDF010ED25D036A8C0F29
:1005C000E96E000E0320EA6EA4C0EFFF8988D22BEB
:1005D000D5D7010ED26FD251070827E38998036A55
:1005E000D251C10FE96E000E0320EA6EEFCFD3F0B7
:1005F000D3C0DBF0ADDF036AA451B10FE96E000E8A
:100600000320EA6EEFCFD3F0D3C0DBF0A1DF010E01
:10061000D25D0F0F036A8C0FE96E000E0320EA6EA5
:10062000A4C0EFFF8988D22BD6D789988994899660
:10063000000C080E016E020E006E002EFED78B9885
:100640009498020E006E002EFED7DF378B96D8B03E
:100650009486D8A09496948882A8FED7012EEBD7D2
:10066000020E006E002EFED78B98949800009486A0
:10067000020E006E002EFED7020E006E002EFED778
:10068000948882A8FED7016A020E006E002EFED763
:1006900082B601808B9894988B969496000C080EE5
:1006A000D76F00C0D8F09486020E006E002EFED7E1
:1006B000948882A8FED782B6D88082A6D8900136C8
:1006C000020E006E002EFED794988B98D72FEBD792
:1006D0009486020E006E002EFED78B96D851D8A4B9
:1006E00094960000948882A8FED7020E006E002E19
:1006F000FED78B989498020E006E002EFED78B9634
:100700009496000CD8C0D9F0D890D933780ED91768
:10071000D931006E00323F0E00160050D925DA6F35
:10072000D8510F0BDA25016E000CDDC0DEF0DF6B57
:10073000DE51090805E20A0EDE5F100EDF2703D046
:10074000DE51DF2701D0F4D7DFC001F0000CD26BFF
:100750009486020E006E002EFED79488020E006E64
:10076000002EFED78B969496020E006E002EFED7BA
:100770008B989498D00EDF6F5CDFDF6B5ADF948626
:10078000020E006E002EFED79488020E006E002E20
:10079000FED782A8FED78B969496020E006E002E8E
:1007A000FED78B989498D10EDF6F43DF006A77DF16
:1007B00001C0D3F001C0D8F0A5DF01C0D2F09496FB
:1007C0000000948882A8FED7020E006E002EFED78D
:1007D00000D000009486020E006E002EFED7D29F3D
:1007E000020E006E002EFED700D09486020E006E20
:1007F000002EFED79488020E006E002EFED78B9638
:100800009496020E006E002EFED78B989498D00E10
:10081000DF6F0FDFDF6B0DDFD2C0DDF086DF01C0E1
:10082000D3F001C0DFF005DF9486020E006E002ECB
:10083000FED79488020E006E002EFED782A8FED747
:100840008B969496020E006E002EFED78B9894988D
:10085000D00EDF6FEEDE070EDF6FEBDE100EDF6F08
:10086000E8DE94960000948882A8FED7020E006EFF
:10087000002EFED700D000009486020E006E002EDF
:10088000FED7C4EF07F09486020E006E002EFED74E
:100890009488020E006E002EFED78B969496020E60
:1008A000006E002EFED78B989498D00EDF6FC1DEBD
:1008B000DDC0DFF0BEDEDEC0DFF0BBDE9496000000
:1008C000948882A8FED7020E006E002EFED700D0BC
:1008D00000009486020E006E002EFED7CFEF04F0CB
:1008E000DC9F9486020E006E002EFED79488020EC6
:1008F000006E002EFED78B969496020E006E002E90
:10090000FED78B989498D00EDF6F93DEDF6B91DE6D
:10091000DCC0DDF00ADF01C0DDF001C0DFF089DE00
:10092000DBC0DDF002DF01C0DDF001C0DFF081DE01
:10093000A7AF07D0DAC0DDF0F8DE01506009DA6F4A
:1009400006D0DAC0DDF0F1DE01504009DA6FDAC01E
:10095000DFF06FDED9C0DDF0E8DE01C0DDF001C000
:10096000DFF067DED6C0DDF0E0DE01C0DDF001C003
:10097000DFF05FDED7C0DDF0D8DE01C0DDF001C002
:10098000DFF057DED8C0DDF0D0DE01C0DDF001C001
:10099000DFF04FDE070EDD6F100EDE6F74D794961A
:1009A0000000948882A8FED7020E006E002EFED7AB
:1009B00000D000009486020E006E002EFED7000CC0
:1009C0009486020E006E002EFED79488020E006EF2
:1009D000002EFED78B969496020E006E002EFED748
:1009E0008B989498D00EDF6F24DE030EDF6F21DE2C
:1009F0009486020E006E002EFED79488020E006EC2
:100A0000002EFED782A8FED78B969496020E006E1B
:100A1000002EFED78B989498D10EDF6F0ADE010E60
:100A2000006E3DDE01507F0BD36FD86F6BDE01C0CF
:100A300020F0010E006E33DE01503F0BD36FD86FF4
:100A400061DE01C01AF0010E006E29DE01501F0B9D
:100A5000D36FD86F57DE01C01BF0006A20DE01C0E3
:100A6000D2F001C0D8F04EDE01C01CF09496000018
:100A7000948882A8FED7020E006E002EFED700D00A
:100A800000009486020E006E002EFED79486020EA1
:100A9000006E002EFED79488020E006E002EFED748
:100AA0008B969496020E006E002EFED78B9894982B
:100AB000D00EDF6FBEDDDF6BBCDD9486020E006EF4
:100AC000002EFED79488020E006E002EFED782A85C
:100AD000FED78B969496020E006E002EFED78B9852
:100AE0009498D10EDF6FA5DD010E006ED8DD0150A8
:100AF0007F0BD36FD86F06DE01C01FF0010E006EB2
:100B0000CEDD01507F0BD36FD86FFCDD01C01EF02E
:100B1000006AC5DD01C01DF0A79F1DBAA78F1D503B
:100B20001F0BD26FD86FEEDD01C01DF09496000050
:100B3000948882A8FED7020E006E002EFED700D049
:100B400000009486020E006E002EFED71D5017087E
:100B50001AE20C0E1D6E1E6A1F6A010E1A6E1B6EC3
:100B6000110E1C6E010E206E1AC0D6F01BC0D7F0FD
:100B70001CC0D8F020C0D9F01DC0DAF01EC0DBF0D8
:100B80001FC0DCF0ADDE000CF2CFDDF0F29ED4C071
:100B9000A9FFA69CA69EA680A850DDBFF28ED56FA9
:100BA000D42BF2CFDDF0F29ED4C0A9FFA69CA69E66
:100BB000A680A850DDBFF28ED66FD42BF2CFDDF029
:100BC000F29ED4C0A9FFA69CA69EA680A850DDBF19
:100BD000F28ED76FD42BF2CFDDF0F29ED4C0A9FFF6
:100BE000A69CA69EA680A850DDBFF28ED86FD8C066
:100BF000DCF0D7C0DBF0D6C0DAF0D5C0D9F0DC51DC
:100C000004080EE2FF0A08E1DB51F40809E2FF0ADA
:100C100003E1DA51E00804E2DC6BDB6BDA6BD96BE1
:100C2000D9C000F0DAC001F0DBC002F0DCC003F094
:100C3000000CF2CFD4F0F29EA96AA69CA69EA680D4
:100C4000A850D4BFF28E426E4250280802E2140E21
:100C5000426EF2CFD4F0F29E010EA96EA69CA69E23
:100C6000A680A850D4BFF28E2F6E2F500A08D8A0AD
:100C70002F6AF2CFD4F0F29E020EA96EA69CA69E19
:100C8000A680A850D4BFF28E446E44500A08D8A063
:100C9000446AF2CFD4F0F29E030EA96EA69CA69EE3
:100CA000A680A850D4BFF28E496A486E495203E12B
:100CB00048501E0802E2496A486AF2CFD4F0F29E18
:100CC000040EA96EA69CA69EA680A850D4BFF28E44
:100CD000306E30500A08D8A0306AF2CFD4F0F29EBD
:100CE000050EA96EA69CA69EA680A850D4BFF28E23
:100CF000316E31501E08D8A0316AF2CFD4F0F29E86
:100D0000060EA96EA69CA69EA680A850D4BFF28E01
:100D1000326E32506308D8A0326AF2CFD4F0F29E1D
:100D20000A0EA96EA69CA69EA680A850D4BFF28EDD
:100D3000D26FF2CFD4F0F29E0B0EA96EA69CA69EA7
:100D4000A680A850D4BFF28ED36FD3C047F0D2C0D4
:100D500046F047504D0805E2FF0A07E146501F08DC
:100D600004E3465206E1475204E1270E476E100E97
:100D7000466EF2CFD4F0F29E0C0EA96EA69CA69EF3
:100D8000A680A850D4BFF28ED26FF2CFD4F0F29EDC
:100D90000D0EA96EA69CA69EA680A850D4BFF28E6A
:100DA000D36FD3C02EF0D2C02DF02E504D0809E2E3
:100DB000FF0A03E12D501F0804E2190E2E6E640E87
:100DC0002D6EF2CFD4F0F29E0E0EA96EA69CA69EBA
:100DD000A680A850D4BFF28ED26FF2CFD4F0F29E8C
:100DE0000F0EA96EA69CA69EA680A850D4BFF28E18
:100DF000D36FD3C028F0D2C027F02850060808E2ED
:100E0000FF0A03E12750D00803E2286A640E276E28
:100E1000100ED46FB9DE03C05FF002C05EF001C0F7
:100E20005DF000C05CF0140ED46FAEDE03C063F062
:100E300002C062F001C061F000C060F0180ED46F13
:100E4000A3DE03C067F002C066F001C065F000C019
:100E500064F01C0ED46F98DE03C07FF002C07EF0F9
:100E600001C07DF000C07CF0200ED46F8DDE03C089
:100E700077F002C076F001C075F000C074F0F2CFD8
:100E8000D4F0F29E250EA96EA69CA69EA680A85020
:100E9000D4BFF28ED26FF2CFD4F0F29E260EA96E9E
:100EA000A69CA69EA680A850D4BFF28ED36FD3C0B6
:100EB0004BF0D2C04AF04B50260809E2FF0A03E18A
:100EC0004A500F0804E2090E4B6E2E0E4A6EF2CF06
:100ED000D4F0F29E270EA96EA69CA69EA680A850CE
:100EE000D4BFF28E256E25500108D8A0256AF2CF16
:100EF000D4F0F29E280EA96EA69CA69EA680A850AD
:100F0000D4BFF28E010802E0269801D02688F2CFE5
:100F1000D4F0F29E290EA96EA69CA69EA680A8508B
:100F2000D4BFF28E010802E0A79D01D0A78DF2CFB9
:100F3000D4F0F29E640EA96EA69CA69EA680A85030
:100F4000D4BFF28EA86FA8510508D8A0A86BC6EF31
:100F500007F0000E926E820E936E870E946E080E4E
:100F6000956E969096929694C00EF2129D8A8A86FD
:100F70009D92780E0609CA6EFF0ECB6E0F0EA46FFF
:100F8000BCEC02F0A7EF03F01BDD53D64F6A4E6AAC
:100F90004D6A4C6AA68126968A888A8A8A8CA6958A
:100FA0008C808C9A8A80A697A791576A566A556A50
:100FB000546A5B6A5A6A596A586AA69DA69FA795A1
:100FC000A69B0D0E3C6E0B0E3B6E0E0E3D6E0F0E75
:100FD0003E6E100E3A6E0C0E396E110E346E120EFD
:100FE000356E130E366E140E376E150E386E216A7E
:100FF0002C6A2B6AD0EF22F0EA6AD70EE96EEF5026
:101000000EE0030E016E006A002EFED7012EFBD704
:10101000E30E006E002EFED70000EF2EF2D7000C7C
:10102000D551016AD45D03E2D4C000F00CD0006A4F
:10103000080ED66FD4370036D551005CD8B0006E9C
:101040000136D62FF7D7000C010ED66FD6510F08F8
:1010500028E38998036AD651C10FE96E000E032078
:10106000EA6EEF50100DF3CFD8F0D8C0DBF0A8EC4B
:1010700002F0010ED65D036A8C0FE96E000E0320AC
:10108000EA6E036AEF50B10FE96E000E0320EA6EBC
:10109000EFCFD9F0D9C0DBF0A8EC02F08988D62BCD
:1010A000D5D7010ED66FD651070827E38998036A72
:1010B000D651C10FE96E000E0320EA6EEFCFD7F0D4
:1010C000D7C0DBF0A8EC02F0010ED65D0F0F036A6B
:1010D0008C0FE96E000E0320EA6E036AEF50B10F29
:1010E000E96E000E0320EA6EEFCFDAF0DAC0DBF033
:1010F000A8EC02F08988D62BD6D78998899489964E
:10110000000CDE6BDF6B010EE06FDA6AD96AE36B0D
:10111000D60EE26FEA6ADA0EE96EE3C0E2FFE2C0E1
:10112000E1FFE0C0E1F0D890E550EE02F350DE239D
:10113000F450DF23E12FF7D7DEC0DEFFDFC0DEF0A3
:10114000DF6BD8B0DF2BE22BD8B4E32BE02BE051E0
:101150000508E0E1000CDFC083F0DEC082F0DDC0F6
:1011600081F0DCC080F083C0E3F082C0E2F081C097
:10117000E1F080C0E0F083530EE1825198080BE368
:1011800007E18151960807E303E180517F0803E3FB
:101190000F0E966F38D0186AF2BE188EF29EE3C01A
:1011A000FAF0E2C0F9F0E1C0F8F0E0C0F7F0FE6B51
:1011B000980EFD6F960EFC6F800EFB6FBBEC01F07E
:1011C00018BEF28E00C096F0186AF2BE188EF29E1B
:1011D000E3C0FAF0E2C0F9F0E1C0F8F0E0C0F7F0E7
:1011E000FE6B980EFD6F960EFC6F800EFB6FBBECD6
:1011F00001F018BEF28EEFCFE0F0ECCFE1F0ECCFD3
:10120000E2F0ECCFE3F083530EE182510F080BE3E1
:1012100007E18151420807E303E180513F0803E3FE
:101220000F0E936F38D0186AF2BE188EF29EE3C08C
:10123000FAF0E2C0F9F0E1C0F8F0E0C0F7F0FE6BC0
:101240000F0EFD6F420EFC6F400EFB6FBBEC01F00A
:1012500018BEF28E00C093F0186AF2BE188EF29E8D
:10126000E3C0FAF0E2C0F9F0E1C0F8F0E0C0F7F056
:10127000FE6B0F0EFD6F420EFC6F400EFB6FBBEC62
:1012800001F018BEF28EEFCFE0F0ECCFE1F0ECCF42
:10129000E2F0ECCFE3F083530EE1825101080BE35F
:1012A00007E18151860807E303E180519F0803E3CA
:1012B0000F0E946F38D0186AF2BE188EF29EE3C0FB
:1012C000FAF0E2C0F9F0E1C0F8F0E0C0F7F0FE6B30
:1012D000010EFD6F860EFC6FA00EFB6FBBEC01F0E4
:1012E00018BEF28E00C094F0186AF2BE188EF29EFC
:1012F000E3C0FAF0E2C0F9F0E1C0F8F0E0C0F7F0C6
:10130000FE6B010EFD6F860EFC6FA00EFB6FBBEC3B
:1013100001F018BEF28EEFCFE0F0ECCFE1F0ECCFB1
:10132000E2F0ECCFE3F083530CE182530AE1815108
:10133000270807E303E180510F0803E30F0E996FBD
:1013400036D0186AF2BE188EF29EE3C0FAF0E2C000
:10135000F9F0E1C0F8F0E0C0F7F0FE6BFD6B270E8E
:10136000FC6F100EFB6FBBEC01F018BEF28E00C0DC
:1013700099F0186AF2BE188EF29EE3C0FAF0E2C04D
:10138000F9F0E1C0F8F0E0C0F7F0FE6BFD6B270E5E
:10139000FC6F100EFB6FBBEC01F018BEF28EEFCFAE
:1013A000E0F0ECCFE1F0ECCFE2F0ECCFE3F08353F0
:1013B0000CE182530AE18151030807E303E1805104
:1013C000E70803E30F0E9A6F36D0186AF2BE188E44
:1013D000F29EE3C0FAF0E2C0F9F0E1C0F8F0E0C03C
:1013E000F7F0FE6BFD6B030EFC6FE80EFB6FBBECC2
:1013F00001F018BEF28E00C09AF0186AF2BE188E84
:10140000F29EE3C0FAF0E2C0F9F0E1C0F8F0E0C00B
:10141000F7F0FE6BFD6B030EFC6FE80EFB6FBBEC91
:1014200001F018BEF28EEFCFE0F0ECCFE1F0ECCFA0
:10143000E2F0ECCFE3F0186AF2BE188EF29EE3C041
:10144000FAF0E2C0F9F0E1C0F8F0E0C0F7F0FE6BAE
:10145000FD6BFC6B640EFB6FBBEC01F018BEF28EF3
:1014600000C097F0186AF2BE188EF29EE3C0FAF040
:10147000E2C0F9F0E1C0F8F0E0C0F7F0FE6BFD6B00
:10148000FC6B640EFB6FBBEC01F018BEF28EEFCF6D
:10149000E0F0ECCFE1F0ECCFE2F0ECCFE3F0186A53
:1014A000F2BE188EF29EE3C0FAF0E2C0F9F0E1C09D
:1014B000F8F0E0C0F7F0FE6BFD6BFC6B0A0EFB6F03
:1014C000BBEC01F018BEF28E00C098F0186AF2BEB4
:1014D000188EF29EE3C0FAF0E2C0F9F0E1C0F8F035
:1014E000E0C0F7F0FE6BFD6BFC6B0A0EFB6FBBEC14
:1014F00001F018BEF28EEFCF92F0000C4FC0D7F083
:101500004EC0D6F04DC0D5F04CC0D4F0D7C0DFF0FF
:10151000D6C0DEF0D5C0DDF0D4C0DCF01CDE000C9F
:10152000DDC087F0DCC086F0DBC085F0DAC084F077
:1015300087C0E1F086C0E0F085C0DFF084C0DEF057
:1015400087530EE1865198080BE307E18551960811
:1015500007E303E184517F0803E30F0E956F38D052
:10156000186AF2BE188EF29EE1C0FAF0E0C0F9F0FF
:10157000DFC0F8F0DEC0F7F0FE6B980EFD6F960E40
:10158000FC6F800EFB6FBBEC01F018BEF28E00C04A
:1015900095F0186AF2BE188EF29EE1C0FAF0E0C033
:1015A000F9F0DFC0F8F0DEC0F7F0FE6B980EFD6FCB
:1015B000960EFC6F800EFB6FBBEC01F018BEF28E36
:1015C000EFCFDEF0ECCFDFF0ECCFE0F0ECCFE1F0EE
:1015D00087530EE186510F080BE307E1855142085E
:1015E00007E303E184513F0803E30F0E9C6F38D0FB
:1015F000186AF2BE188EF29EE1C0FAF0E0C0F9F06F
:10160000DFC0F8F0DEC0F7F0FE6B0F0EFD6F420E8C
:10161000FC6F400EFB6FBBEC01F018BEF28E00C0F9
:101620009CF0186AF2BE188EF29EE1C0FAF0E0C09B
:10163000F9F0DFC0F8F0DEC0F7F0FE6B0F0EFD6FC3
:10164000420EFC6F400EFB6FBBEC01F018BEF28E39
:10165000EFCFDEF0ECCFDFF0ECCFE0F0ECCFE1F05D
:1016600087530EE1865101080BE307E18551860897
:1016700007E303E184519F0803E30F0E9B6F38D00B
:10168000186AF2BE188EF29EE1C0FAF0E0C0F9F0DE
:10169000DFC0F8F0DEC0F7F0FE6B010EFD6F860EC6
:1016A000FC6FA00EFB6FBBEC01F018BEF28E00C009
:1016B0009BF0186AF2BE188EF29EE1C0FAF0E0C00C
:1016C000F9F0DFC0F8F0DEC0F7F0FE6B010EFD6F41
:1016D000860EFC6FA00EFB6FBBEC01F018BEF28E05
:1016E000EFCFDEF0ECCFDFF0ECCFE0F0ECCFE1F0CD
:1016F00087530CE186530AE18551270807E303E18C
:1017000084510F0803E30F0E9D6F36D0186AF2BEA6
:10171000188EF29EE1C0FAF0E0C0F9F0DFC0F8F0F8
:10172000DEC0F7F0FE6BFD6B270EFC6F100EFB6F3B
:10173000BBEC01F018BEF28E00C09DF0186AF2BE3C
:10174000188EF29EE1C0FAF0E0C0F9F0DFC0F8F0C8
:10175000DEC0F7F0FE6BFD6B270EFC6F100EFB6F0B
:10176000BBEC01F018BEF28EEFCFDEF0ECCFDFF075
:10177000ECCFE0F0ECCFE1F087530CE186530AE1C7
:101780008551030807E303E18451E70803E30F0EE3
:101790008E6F36D0186AF2BE188EF29EE1C0FAF053
:1017A000E0C0F9F0DFC0F8F0DEC0F7F0FE6BFD6BD3
:1017B000030EFC6FE80EFB6FBBEC01F018BEF28E5F
:1017C00000C08EF0186AF2BE188EF29EE1C0FAF0E8
:1017D000E0C0F9F0DFC0F8F0DEC0F7F0FE6BFD6BA3
:1017E000030EFC6FE80EFB6FBBEC01F018BEF28E2F
:1017F000EFCFDEF0ECCFDFF0ECCFE0F0ECCFE1F0BC
:10180000186AF2BE188EF29EE1C0FAF0E0C0F9F05C
:10181000DFC0F8F0DEC0F7F0FE6BFD6BFC6B640E12
:10182000FB6FBBEC01F018BEF28E00C08FF0186A9F
:10183000F2BE188EF29EE1C0FAF0E0C0F9F0DFC00F
:10184000F8F0DEC0F7F0FE6BFD6BFC6B640EFB6F17
:10185000BBEC01F018BEF28EEFCFDEF0ECCFDFF084
:10186000ECCFE0F0ECCFE1F0186AF2BE188EF29EF9
:10187000E1C0FAF0E0C0F9F0DFC0F8F0DEC0F7F048
:10188000FE6BFD6BFC6B0A0EFB6FBBEC01F018BE30
:10189000F28E00C091F0186AF2BE188EF29EE1C07E
:1018A000FAF0E0C0F9F0DFC0F8F0DEC0F7F0FE6B50
:1018B000FD6BFC6B0A0EFB6FBBEC01F018BEF28EE9
:1018C000EFCF90F0000C53C0D9F052C0D8F051C007
:1018D000D7F050C0D6F0D9C0DDF0D8C0DCF0D7C00A
:1018E000DBF0D6C0DAF01CDE000C016A026A006A86
:1018F000036ADB5102E1DA5118E0100EDC6FD89078
:10190000D837D93700360336DB51035C02E1DA51B0
:10191000005C07E3DA51005ED8A00306DB51035EEA
:10192000D88001360236DC2FEAD7000CD5C0D7F0BC
:10193000D4C0D6F00F0E9E6FD551270807E303E100
:10194000D4510F0803E30F0E9F6F0BD0D7C0D9F00F
:10195000D6C0D8F0270EDB6F100EDA6FC6DF01C0DD
:101960009FF0D7C0D9F0D6C0D8F0270EDB6F100E8D
:10197000DA6FBBDF00C0D6F003C0D7F0D7C0D9F014
:10198000D6C0D8F0030EDB6FE80EDA6FAEDF01C011
:10199000A0F0D7C0D9F0D6C0D8F0030EDB6FE80EA8
:1019A000DA6FA3DF00C0D6F003C0D7F0D7C0D9F0FC
:1019B000D6C0D8F0DB6B640EDA6F97DF01C0A1F000
:1019C000D7C0D9F0D6C0D8F0DB6B640EDA6F8DDFEC
:1019D00000C0D6F003C0D7F0D7C0D9F0D6C0D8F039
:1019E000DB6B0A0EDA6F81DF01C08DF0D7C0D9F052
:1019F000D6C0D8F0DB6B0A0EDA6F77DF00C08CF050
:101A0000000CDC51DE03F3CF01F0F4CF00F0DF0374
:101A1000F3500026DD51DE03F3500020026E000C6F
:101A2000DB6B30C0DAF0DBC0DDF030C0DCF0DF6B48
:101A3000640EDE6FE6DF01502D24D66F02502E209B
:101A4000D76FDB6B30C0DAF0DBC0DDF030C0DCF02C
:101A5000DF6B640EDE6FD5DF0250036E2E5C15E384
:101A600003E12D50015C11E2DB6B30C0DAF0DBC02A
:101A7000DDF030C0DCF0DF6B640EDE6FC2DF0150E2
:101A80002D5CD86F02502E58D96FA6AB1BD0575281
:101A900016E1565214E15550D75D11E303E1D651DA
:101AA000545C0DE2575209E1565207E1D951555C99
:101AB00006E303E15450D85D02E2436A02D048C015
:101AC00043F008D0325204E131C043F0268A02D0FC
:101AD000436A269A000CD751DB6FD8C0DCF0D9C01E
:101AE000DDF0DAC0DEF0D6C0A9FFDBC0A8FFA69CFF
:101AF000A69EA684F2CF00F0F29E0F01550EA76EAF
:101B0000AA0EA76EA682A6B2FED7A6940050F21225
:101B10000001D62BD6C0A9FFDCC0A8FFA69CA69EBC
:101B2000A684F2CF00F0F29E0F01550EA76EAA0E0A
:101B3000A76EA682A6B2FED7A6940050F2120001AC
:101B4000D62BD6C0A9FFDDC0A8FFA69CA69EA68462
:101B5000F2CF00F0F29E0F01550EA76EAA0EA76EEF
:101B6000A682A6B2FED7A6940050F2120001D62B90
:101B7000D6C0A9FFDEC0A8FFA69CA69EA684F2CF71
:101B800000F0F29E0F01550EA76EAA0EA76EA68258
:101B9000A6B2FED7A6940050F2120001000CA82BAA
:101BA000A851050802E2010EA86FA82D02D0650E0B
:101BB000A96FA851020802E16F0EA96FA85103088E
:101BC00002E1790EA96FA851040802E1830EA96F02
:101BD000A851050802E18D0EA96FA9C0D6F063C017
:101BE000DAF062C0D9F061C0D8F060C0D7F073DF1E
:101BF000050EA925D26FD66F67C0DAF066C0D9F09E
:101C000065C0D8F064C0D7F066DF640EA96EA8C0C6
:101C1000A8FFA69CA69EA684F2CF00F0F29E0F011C
:101C2000550EA76EAA0EA76EA682A6B2FED7A694E0
:101C30000050F212000145EF10F0A96A42C0A8FF5F
:101C4000A69CA69EA684F2CF00F0F29E0F01550E30
:101C5000A76EAA0EA76EA682A6B2FED7A6940050C3
:101C6000F212010EA96E2FC0A8FFA69CA69EA68404
:101C7000F2CF00F0F29E550EA76EAA0EA76EA682B6
:101C8000A6B2FED7A6940050F212020EA96E44C06E
:101C9000A8FFA69CA69EA684F2CF00F0F29E550E49
:101CA000A76EAA0EA76EA682A6B2FED7A694005073
:101CB000F212030EA96E48C0A8FFA69CA69EA68499
:101CC000F2CF00F0F29E550EA76EAA0EA76EA68266
:101CD000A6B2FED7A6940050F212040EA96E30C030
:101CE000A8FFA69CA69EA684F2CF00F0F29E550EF9
:101CF000A76EAA0EA76EA682A6B2FED7A694005023
:101D0000F212050EA96E31C0A8FFA69CA69EA6845D
:101D1000F2CF00F0F29E550EA76EAA0EA76EA68215
:101D2000A6B2FED7A6940050F212060EA96E32C0DB
:101D3000A8FFA69CA69EA684F2CF00F0F29E550EA8
:101D4000A76EAA0EA76EA682A6B2FED7A6940050D2
:101D5000F21246C0D2F0000147C0D3F00A0EA96EBD
:101D6000D2C0A8FFA69CA69EA684F2CF00F0F29E49
:101D70000F01550EA76EAA0EA76EA682A6B2FED7B9
:101D8000A6940050F2120B0EA96ED3C0A8FFA69C19
:101D9000A69EA684F2CF00F0F29E550EA76EAA0E64
:101DA000A76EA682A6B2FED7A6940050F2122DC04E
:101DB000D2F000012EC0D3F00C0EA96ED2C0A8FF45
:101DC000A69CA69EA684F2CF00F0F29E0F01550EAF
:101DD000A76EAA0EA76EA682A6B2FED7A694005042
:101DE000F2120D0EA96ED3C0A8FFA69CA69EA684D3
:101DF000F2CF00F0F29E550EA76EAA0EA76EA68235
:101E0000A6B2FED7A6940050F21227C0D2F000016D
:101E100028C0D3F00E0EA96ED2C0A8FFA69CA69E25
:101E2000A684F2CF00F0F29E0F01550EA76EAA0E07
:101E3000A76EA682A6B2FED7A6940050F2120F0E8D
:101E4000A96ED3C0A8FFA69CA69EA684F2CF00F0E0
:101E5000F29E550EA76EAA0EA76EA682A6B2FED758
:101E6000A6940050F212100E0001D66F5FC0DAF097
:101E70005EC0D9F05DC0D8F05CC0D7F02CDE140E87
:101E8000D66F63C0DAF062C0D9F061C0D8F060C02C
:101E9000D7F021DE180ED66F67C0DAF066C0D9F031
:101EA00065C0D8F064C0D7F016DE1C0ED66F7FC0B8
:101EB000DAF07EC0D9F07DC0D8F07CC0D7F00BDE60
:101EC000200ED66F77C0DAF076C0D9F075C0D8F0A2
:101ED00074C0D7F000DE4AC0D2F04BC0D3F0250E5C
:101EE000A96ED2C0A8FFA69CA69EA684F2CF00F041
:101EF000F29E0F01550EA76EAA0EA76EA682A6B27D
:101F0000FED7A6940050F212260EA96ED3C0A8FFE9
:101F1000A69CA69EA684F2CF00F0F29E550EA76E58
:101F2000AA0EA76EA682A6B2FED7A6940050F21201
:101F3000270EA96E25C0A8FFA69CA69EA684F2CF58
:101F400000F0F29E550EA76EAA0EA76EA682A6B24C
:101F5000FED7A6940050F21226A815D0280EA96E1E
:101F6000010EA86EA69CA69EA684F2CF00F0F29E5B
:101F7000550EA76EAA0EA76EA682A6B2FED7A6948D
:101F80000050F21213D0280EA96EA86AA69CA69E35
:101F9000A684F2CF00F0F29E550EA76EAA0EA76E91
:101FA000A682A6B2FED7A6940050F2120001A7ADF9
:101FB00017D0290EA96E010EA86EA69CA69EA68417
:101FC000F2CF00F0F29E0F01550EA76EAA0EA76E7B
:101FD000A682A6B2FED7A6940050F21215D0000138
:101FE000290EA96EA86AA69CA69EA684F2CF00F030
:101FF000F29E0F01550EA76EAA0EA76EA682A6B27C
:10200000FED7A6940050F2120001000CA69526926D
:1020100063C053F062C052F061C051F060C050F034
:1020200067C04FF066C04EF065C04DF064C04CF024
:102030007EEC0AF048DC47C0D5F046C0D4F076DC30
:1020400024EC08F0000C8A968A888A8A8A8C269664
:10205000F2969D92505206E1515204E1525202E131
:10206000535214E053C063F052C062F051C061F0AB
:1020700050C060F04FC067F04EC066F04DC065F0D4
:102080004CC064F026AC02D08AD5269CA699A69BAB
:10209000A795576A566A556A546A5B6A5A6A596ABA
:1020A000586A330ED66FDA6BD96BD86BD76B13DDEA
:1020B0003D0ED66FDA6BD96BD86BD76B0CDD470E44
:1020C000D66FDA6BD96BD86BD76B05DDB6DD82A422
:1020D00001D09CDF020ED26F960ED76FFCEC07F09A
:1020E000D22FFAD78A86000C82A21DD0F2960C0E4F
:1020F000956F8A888A8A8A8C24EC08F0020ED26F47
:10210000FA0ED76FFCEC07F0D22FFAD70F0E956FAF
:1021100024EC08F0020ED26FFA0ED76FFCEC07F039
:10212000D22FFAD7E1D782B402D0A6B501D016D00B
:1021300024EC08F08A98020ED26FFA0ED76FFCECEE
:1021400007F0D22FFAD78A9AF286020ED26FFA0ED1
:10215000D76FFCEC07F0D22FFAD78A9C000C536A99
:10216000526A516A506A736A726A716A706A3F6A27
:1021700082A201D0B9DF82A401D012D2535207E16A
:10218000525205E1515203E15050445C3BE253C0CE
:10219000D9F052C0D8F051C0D7F050C0D6F0DD6BA6
:1021A000DC6B47C0DBF046C0DAF081EC08F003C01E
:1021B000D5F002C0D4F001C0D3F000C0D2F0186A4C
:1021C000F2BE188EF29E03C0FAF002C0F9F001C010
:1021D000F8F000C0F7F0FE6BFD6BFC6B640EFB6F5C
:1021E000BBEC01F018BEF28E03C04FF002C04EF0FF
:1021F00001C04DF000C04CF063EC0CF07EEC0AF036
:1022000024EC08F0535208E1525206E1515204E125
:102210002F50505C01E2ACD75B520FE15A520DE1F6
:1022200059520BE15850425C08E3585207E15952A9
:1022300005E15A5203E15B52D8B48A9C535208E13B
:10224000525206E1515204E15050445C01E390D7F0
:1022500082A201D049DF82A407D0730ED76FFCECB5
:1022600007F082A401D09CD1A7A799D146C000F065
:1022700047C001F0026A036A03C0D5F002C0D4F07F
:1022800047C0D3F046C0D2F053C0D9F052C0D8F006
:1022900051C0D7F050C0D6F003C0DDF002C0DCF072
:1022A00047C0DBF046C0DAF081EC08F003C0D6F09E
:1022B00002C0D5F001C0D4F000C0D3F0186AF2BE5D
:1022C000188EF29E03C0FAF002C0F9F001C0F8F0D7
:1022D00000C0F7F0FE6BFD6BFC6B640EFB6FBBEC9C
:1022E00001F018BEF28E03C04FF002C04EF001C0E4
:1022F0004DF000C04CF063EC0CF07EEC0AF024ECE6
:1023000008F0A797186AF2BE188EF29E5FC0FAF026
:102310005EC0F9F05DC0F8F05CC0F7F0FE6BFD6BDD
:10232000FC6B640EFB6FBBEC01F018BEF28E03C0B9
:10233000D5F002C0D4F001C0D3F000C0D2F06F508D
:10234000035C2DE30BE16E50D45D29E307E16D5092
:10235000D35D25E303E1D2516C5C21E2186AF2BE41
:10236000188EF29E5FC0FAF05EC0F9F05DC0F8F022
:102370005CC0F7F0FE6BFD6BFC6B640EFB6FBBEC9F
:1023800001F018BEF28E03C06FF002C06EF001C003
:102390006DF000C06CF0A26B8C908C8A8A9626BA85
:1023A0003FD0D56BD46BD36B32C0D2F0D5C0D9F04F
:1023B000D4C0D8F0D3C0D7F032C0D6F0DD6BDC6B20
:1023C000DB6B640EDA6F81EC08F00350535C28E39A
:1023D0000BE10250525C24E307E10150515C20E321
:1023E00003E15050005C1CE231C043F0036A4350EB
:1023F000275C006E03502858036E00C0D2F0D36FE4
:10240000270ED96F100ED86F03C0DBF000C0DAF0D2
:1024100075EC0CF002C02AF001C029F0268A268E45
:1024200081A21CD026BE19D0036A4350275C006EDF
:1024300003502858036E00C0D2F0D36F270ED96F17
:10244000100ED86F03C0DBF000C0DAF075EC0CF0B2
:1024500002C02AF001C029F0268E11D026AE0FD07E
:10246000270ED96F100ED86F28C0DBF027C0DAF026
:1024700075EC0CF002C02AF001C029F0269EA6A936
:102480008ED0016A026A036A4250585C006E0150A5
:102490005958016E02505A58026E03505B58036E31
:1024A000535C0DE30BE10250525C09E307E101507C
:1024B000515C05E303E15050005CD8A08A8C5B506E
:1024C000535C6DE30BE15A50525C69E307E15950EC
:1024D000515C65E303E15850505C61E3F2968A88F1
:1024E0008A8A8A8CA699C80ED76FFCEC07F05BC06D
:1024F00053F05AC052F059C051F058C050F046C085
:1025000000F047C001F0026A036A03C0D5F002C0C0
:10251000D4F047C0D3F046C0D2F053C0D9F052C077
:10252000D8F051C0D7F050C0D6F003C0DDF002C0E3
:10253000DCF047C0DBF046C0DAF081EC08F003C005
:10254000D6F002C0D5F001C0D4F000C0D3F0186AB4
:10255000F2BE188EF29E03C0FAF002C0F9F001C07C
:10256000F8F000C0F7F0FE6BFD6BFC6B640EFB6FC8
:10257000BBEC01F018BEF28E03C04FF002C04EF06B
:1025800001C04DF000C04CF0A6AB08D057C04FF0D2
:1025900056C04EF055C04DF054C04CF001D058D646
:1025A000F2968A888A8A8A8C505088255C6E5150AF
:1025B00089215D6E52508A215E6E53508B215F6E71
:1025C000186AF2BE188EF29E5FC0FAF05EC0F9F093
:1025D0005DC0F8F05CC0F7F0FE6BFD6BFC6B640E49
:1025E000FB6FBBEC01F018BEF28E03C0D5F002C049
:1025F000D4F001C0D3F000C0D2F06F50035C2DE3E3
:102600000BE16E50D45D29E307E16D50D35D25E306
:1026100003E1D2516C5C21E2186AF2BE188EF29E80
:102620005FC0FAF05EC0F9F05DC0F8F05CC0F7F092
:10263000FE6BFD6BFC6B640EFB6FBBEC01F018BE18
:10264000F28E03C06FF002C06EF001C06DF000C0EA
:102650006CF0A26B8C908C8A8A9663EC0CF07EEC0A
:102660000AF024EC08F0EFDC0F0ED76FFCEC07F05B
:102670008C808C9A82B401D0FDD71BEF25F0545288
:1026800006E1555204E1565202E1575260E057C04C
:10269000D9F056C0D8F055C0D7F054C0D6F0DD6B95
:1026A000DC6BDB6B640EDA6F81EC08F003C0D5F0F5
:1026B00002C0D4F001C0D3F000C0D2F046C000F098
:1026C00047C001F0026A036A03C0D9F002C0D8F023
:1026D00047C0D7F046C0D6F0186AF2BE188EF29EF8
:1026E000D5C0FAF0D4C0F9F0D3C0F8F0D2C0F7F0FA
:1026F00003C0FEF002C0FDF047C0FCF046C0FBF096
:10270000BBEC01F018BEF28E03C0D5F002C0D4F0CD
:1027100001C0D3F000C0D2F0D5C05BF0D4C05AF0F5
:10272000D3C059F0D2C058F0A689536A526A516A90
:1027300044C050F0A68B470ED66F57C0DAF056C093
:10274000D9F055C0D8F054C0D7F06BEC0DF058520A
:1027500006E1595204E15A5202E15B5202E0A6AB93
:10276000A785585206E1595204E15A5202E15B52E0
:10277000D8A4A689A6A90DD03D0ED66F5BC0DAF00D
:102780005AC0D9F059C0D8F058C0D7F06BEC0DF052
:1027900008D03D0ED66FDA6BD96BD86BD76B6BEC6C
:1027A0000DF010EC0DF0456A186AF2BE188EF29E1C
:1027B0005FC0FAF05EC0F9F05DC0F8F05CC0F7F001
:1027C000FE6BFD6BFC6B640EFB6FBBEC01F018BE87
:1027D000F28E03C06FF002C06EF001C06DF000C059
:1027E0006CF0A793536A526A516A506A4F6A4E6AF4
:1027F0004D6A4C6A81A21AD0036A4350275C006E6E
:1028000003502858036E00C0D6F0D76F270ED96F3B
:10281000100ED86F03C0DBF000C0DAF075EC0CF0DE
:1028200002C02AF001C029F0268E0FD0270ED96FE2
:10283000100ED86F28C0DBF027C0DAF075EC0CF072
:1028400002C02AF001C029F0269E736A726A716A7A
:10285000706A3F6A246AF7EF24F08C98D16BD151EB
:1028600007080FE3D9AF02D08B8A01D08B9AD947E2
:102870008C94090E006E002EFED700D08C84D12BD4
:10288000EED746EF14F0D7C0D9F0E7D78C88D853ED
:1028900003E18C828C948B9AD82D03D08C828C94FB
:1028A0008B8AD851020803E18C828C848B8A000CBD
:1028B000A56BD66BD651020817E3FD0ED76FD6C0B5
:1028C000D8F0E1DF83B60ED0D65302E10D0EA56F2E
:1028D000D62D02D00A0EA56FD651020802E1120EC3
:1028E000A56FA4D0D62BE6D7D66BD651020817E336
:1028F000FB0ED76FD6C0D8F0C6DF83B60ED0D65346
:1029000002E1030EA56FD62D02D00C0EA56FD65195
:10291000020802E10B0EA56F89D0D62BE6D7D66B45
:10292000D651020817E3F70ED76FD6C0D8F0ABDF49
:1029300083B60ED0D65302E1060EA56FD62D02D077
:10294000090EA56FD651020802E1100EA56F6ED0D8
:10295000D62BE6D7D66BD651020817E3EF0ED76F0A
:10296000D6C0D8F090DF83B60ED0D65302E1040E65
:10297000A56FD62D02D00F0EA56FD651020802E129
:10298000140EA56F53D0D62BE6D7D66BD6510208BE
:1029900017E3DF0ED76FD6C0D8F075DF83B60ED041
:1029A000D65302E1010EA56FD62D02D00E0EA56FF3
:1029B000D651020802E1150EA56F38D0D62BE6D706
:1029C000D66BD651020817E3BF0ED76FD6C0D8F02A
:1029D0005ADF83B60ED0D65302E1050EA56FD62D71
:1029E00002D0070EA56FD651020802E1110EA56FA5
:1029F0001DD0D62BE6D7D66BD651020817E37F0E33
:102A0000D76FD6C0D8F03FDF83B60ED0D65302E1E1
:102A1000020EA56FD62D02D0080EA56FD651020862
:102A200002E1130EA56F02D0D62BE6D783B60DD0E8
:102A30008A96140ED76FFCEC07F00A0ED76FFCECE9
:102A400007F083B601D0F9D78A86000C57C0D5F0BD
:102A500056C0D4F055C0D3F054C0D2F0D5C0DFF08A
:102A6000D4C0DEF0D3C0DDF0D2C0DCF0ABEC08F0B7
:102A7000D5530DE1D45198080AE307E1D3519608E4
:102A800006E303E1D2517F0802E30C0E966F7CEF60
:102A900015F03450A55D06E1576A566A270E556E4B
:102AA000100E546E3550A55D06E1576A566A4E0EFB
:102AB000556E200E546E3650A55D06E1576A566A73
:102AC000750E556E300E546E3750A55D06E1576A8F
:102AD000566A9C0E556E400E546E3850A55D06E148
:102AE000576A566AC30E556E500E546E536A526A38
:102AF000516A506A416AAAD70F0E956F9C6F9B6FFF
:102B00009D6F8E6F8F6F916F906F0C0E966F24EC90
:102B100008F0A56B000C57520DE156500E080FE25D
:102B2000FF0A08E1555041080AE2FF0A03E1545048
:102B30003F0805E2576A566A556A546A416A57C0A7
:102B4000D9F056C0D8F055C0D7F054C0D6F0DD6BE0
:102B5000DC6BDB6B640EDA6F81EC08F003C0D5F040
:102B600002C0D4F001C0D3F000C0D2F0D5C0DFF075
:102B7000D4C0DEF0D3C0DDF0D2C0DCF0ABEC08F0A6
:102B8000D5530DE1D45101080AE307E1D35186087A
:102B900006E303E1D2519F0802E30C0E966F000C8E
:102BA000406AA5510A0804E3A55302E0A5C040F01D
:102BB000000CA69D2692416A4F6A4E6A4D6A4C6A85
:102BC0005B6A5A6A596A586A536A526A516A506A09
:102BD00063EC0CF00F0E956F9C6F9B6F9D6F8E6F6B
:102BE0008F6F916F906F97DF24EC08F0A553D8B4E6
:102BF00077D0A551100821E2A55115081EE349DF41
:102C0000186AF2BE188EF29E57C0FAF056C0F9F05C
:102C100055C0F8F054C0F7F0FE6BFD6BFC6B640E12
:102C2000FB6FBBEC01F018BEF28E03C057F002C080
:102C300056F001C055F000C054F0B2DF40500A0811
:102C40004FE340524DE0415005084AE340500A0826
:102C5000D8B4406A415205E1576A566A556A40C085
:102C600054F0415222E057C0D9F056C0D8F055C0B8
:102C7000D7F054C0D6F0DD6BDC6BDB6B0A0EDA6F7D
:102C800081EC08F003C057F002C056F001C055F0C7
:102C900000C054F0016A026A036A40505426015091
:102CA0005522025056220350572235DF57520DE16C
:102CB000565001080AE307E15550860806E303E190
:102CC00054509F0802E30C0E966F24EC08F0412A42
:102CD000020ED26F960ED76FFCEC07F0D22FFAD708
:102CE000E7DD3B50A55D03E03A50A55D01E169D009
:102CF00082B466D057C0D9F056C0D8F055C0D7F0CE
:102D000054C0D6F0DD6BDC6BDB6B640EDA6F81ECEC
:102D100008F003C057F002C056F001C055F000C0E3
:102D200054F057C0D9F056C0D8F055C0D7F054C0B1
:102D3000D6F0DD6BDC6BDB6B640EDA6F81EC08F0D8
:102D400003C0D5F002C0D4F001C0D3F000C0D2F06F
:102D5000186AF2BE188EF29E03C0FAF002C0F9F0B3
:102D600001C0F8F000C0F7F0FE6BFD6B47C0FCF04F
:102D700046C0FBF0BBEC01F018BEF28E03C0D6F0EB
:102D800002C0D5F001C0D4F000C0D3F0D65317E193
:102D9000D55315E1D45313E1D351020810E3A681B2
:102DA000576A566A556A546AB6DE24EC08F0020E79
:102DB000D26F960ED76FFCEC07F0D22FFAD701D066
:102DC00015D7000C1B0E9EA8FED7AD6E400E9EA818
:102DD000FED7AD6E0A0ED76FFCEC07F0A799B06B6B
:102DE000AB6B100E9EA8FED7AD6E040E9EA8FED74C
:102DF000AD6E040E9EA8FED7AD6E140ED76FFCEC20
:102E000007F0A78B89EF18F01B0E9EA8FED7AD6EBA
:102E1000210E9EA8FED7AD6ED22D04D0010E9EA825
:102E2000FED7AD6ED251020804E1010E9EA8FED776
:102E3000AD6ED251030804E1100E9EA8FED7AD6E10
:102E4000D251040804E1200E9EA8FED7AD6ED251E7
:102E5000050804E1300E9EA8FED7AD6ED2510608DB
:102E600004E1110E9EA8FED7AD6ED251070804E111
:102E7000210E9EA8FED7AD6ED251080804E1310E96
:102E80009EA8FED7AD6E0A0ED76FFCEC07F0000CC3
:102E90001B0E9EA8FED7AD6E610E9EA8FED7AD6E2E
:102EA000D22D04D0300E9EA8FED7AD6ED2510208AE
:102EB00004E1310E9EA8FED7AD6ED251030804E1A5
:102EC000320E9EA8FED7AD6E0A0ED76FFCEC07F04F
:102ED000000C1B0E9EA8FED7AD6E640E9EA8FED7FA
:102EE000AD6ED2519EA8FED7AD6E0A0ED76FFCEC28
:102EF00007F0000CE950DA6F3B0EE16F9A0EE06FBD
:102F0000CA0EDF6FDE6B0A0EDC6F186AF2BE188E17
:102F1000F29ED9C0FAF0D8C0F9F0D7C0F8F0D6C008
:102F2000F7F0E1C0FEF0E0C0FDF0DFC0FCF0DEC075
:102F3000FBF0BBEC01F018BEF28E0150EFCFD6F0E3
:102F4000ECCFD7F0ECCFD8F0ECCFD9F000520FE1B6
:102F5000DC51010A0CE0DA510BE00F0BDC5D01E003
:102F60000DE2DABF0BD0DABD03D0200E02D0DA6B4F
:102F7000300E002600509EA8FED7AD6E186AF2BE35
:102F8000188EF29EE1C0FAF0E0C0F9F0DFC0F8F070
:102F9000DEC0F7F0FE6BFD6BFC6B0A0EFB6FBBEC4B
:102FA00001F018BEF28E03C0E1F002C0E0F001C0F3
:102FB000DFF000C0DEF0DC2FA8D7000C0150D2C03B
:102FC000D4F0640ED56F10EC08F000C0D2F00150C0
:102FD000300E07E1D3A30DD0D3B70BD0D3B9200E59
:102FE00003D0D397D399D381012601509EA8FED751
:102FF000AD6ED2C0D4F00A0ED56F10EC08F000C050
:10300000D2F00150300E06E1D3B709D0D3A107D0DA
:10301000D3B9200E012601509EA8FED7AD6E300E0A
:10302000D227D2519EA8FED7AD6E000CEACFDCF0BD
:10303000E9CFDBF0D539F009D76FD727E20FD86F8A
:10304000320FDA6FD5510F0BD827D827DA27E90FBF
:10305000D96FD927D927D4390F0BD927DA27D937F0
:10306000DA37DA1FDA37D4510F0BDA27D737070EE2
:10307000D66F0A0ED907DA27FDE3D807D927FDE373
:10308000D707D827FDE3D607D727FDE3EA6AD60E90
:10309000E96E070EDB15DB9DE926DA0EE95CD8B494
:1030A000DB8DEF50006E08E1DBBD06D0DBB90CD044
:1030B000DBB702D0200E03D0DB87DB99300E002671
:1030C00000509EA8FED7AD6EEE50DBADE6D7000CEB
:1030D0001D0E9EA8FED7AD6E560E9EA8FED7AD6EF5
:1030E000010E9EA8FED7AD6E0A0ED76FFCEC07F05E
:1030F00024EF1BF082B001D0FDD78A909D8A860E06
:10310000946E640ED76FFCEC07F08B90E0EC04F04B
:1031100059D6A7AB99D2010E7426D8B0752AD8B467
:10312000762AD8B4772A030ED26F6EDE020ED26FE3
:10313000AFDED26BD2515BEC00F0D22B006E0050B0
:103140009EA8FED7AD6E0C0ED25DF4E10A0E9EA8CD
:10315000FED7AD6ED26BD2516FEC00F0D22B006E69
:1031600000509EA8FED7AD6E280ED25DF4E10A0E87
:103170009EA8FED7AD6E010ED26FABDE060ED26FEB
:1031800043DE020ED26F84DED26BD25191EC00F09E
:10319000D22B006E00509EA8FED7AD6E160ED25DEB
:1031A000F4E10A0E9EA8FED7AD6ED26BD251AAEC06
:1031B00000F0D22B006E00509EA8FED7AD6E080E18
:1031C000D25DF4E10A0E9EA8FED7AD6E010ED26F5D
:1031D00080DE040ED26F18DE010ED26F59DED26B84
:1031E000D251BCEC00F0D22B006E00509EA8FED74E
:1031F000AD6E070ED25DF4E10A0E9EA8FED7AD6E4D
:10320000D26BD251CDEC00F0D22B006E00509EA8B4
:10321000FED7AD6E080ED25DF4E1030ED36F200E23
:103220009EA8FED7AD6ED32FFAD7080ED46FD45117
:10323000CDEC00F0D42B006E00509EA8FED7AD6EF2
:103240000C0ED45DF4E10A0E9EA8FED7AD6ED26BD3
:10325000D251E1EC00F0D22B006E00509EA8FED7B8
:10326000AD6E0B0ED25DF4E1410EE96E77C0D9F080
:1032700076C0D8F075C0D7F074C0D6F03BDE0A0E29
:103280009EA8FED7AD6ED26BD251F4EC00F0D22BDB
:10329000006E00509EA8FED7AD6E050ED25DF4E123
:1032A0001AC0D2F0010ED36F89DE2D0E9EA8FED774
:1032B000AD6E1BC0D2F0010ED36F80DE2D0E9EA826
:1032C000FED7AD6E320E9EA8FED7AD6E300E9EA814
:1032D000FED7AD6E1CC0D2F0010ED36F6FDE200E94
:1032E0009EA8FED7AD6E1DC0D2F0010ED36F66DE74
:1032F0003A0E9EA8FED7AD6E1EC0D2F0010ED36F5F
:103300005DDE3A0E9EA8FED7AD6E1FC0D2F0010E54
:10331000D36F54DE0A0E9EA8FED7AD6E010ED26F9B
:10332000D8DDD26BD25104EC01F0D22B006E0050EC
:103330009EA8FED7AD6E0D0ED25DF4E10A0ED36FDE
:103340005F0E9EA8FED7AD6ED32FFAD70A0E9EA8A9
:10335000FED7AD6ED26BD25118EC01F0D22B006EBD
:1033600000509EA8FED7AD6E0E0ED25DF4E1186A35
:10337000F2BE188EF29E4FC0FAF04EC0F9F04DC06A
:10338000F8F04CC0F7F0FE6BFD6BFC6B640EFB6F4E
:10339000BBEC01F018BEF28E03C0D5F002C0D4F031
:1033A00001C0D3F000C0D2F0410EE96E03C0D9F0E5
:1033B00002C0D8F001C0D7F000C0D6F09BDD2E0EC1
:1033C0009EA8FED7AD6E186AF2BE188EF29E4FC050
:1033D000FAF04EC0F9F04DC0F8F04CC0F7F0FE6BBB
:1033E000FD6BFC6B640EFB6FBBEC01F018BEF28E44
:1033F000EFCFD2F0ECCFD3F0ECCFD4F0ECCFD5F0D0
:10340000420EE96ED5C0D9F0D4C0D8F0D3C0D7F001
:10341000D2C0D6F06FDD200E9EA8FED7AD6E200E76
:103420009EA8FED7AD6E0A0E9EA8FED7AD6ED26BDB
:10343000D2512DEC01F0D22B006E00509EA8FED789
:10344000AD6E0E0ED25DF4E1186AF2BE188EF29ED9
:1034500053C0FAF052C0F9F051C0F8F050C0F7F084
:10346000FE6BFD6BFC6B640EFB6FBBEC01F018BEDA
:10347000F28E03C0D5F002C0D4F001C0D3F000C07A
:10348000D2F0410EE96E03C0D9F002C0D8F001C0FD
:10349000D7F000C0D6F02EDD2E0E9EA8FED7AD6E62
:1034A000186AF2BE188EF29E53C0FAF052C0F9F0BC
:1034B00051C0F8F050C0F7F0FE6BFD6BFC6B640E72
:1034C000FB6FBBEC01F018BEF28EEFCFD2F0ECCF69
:1034D000D3F0ECCFD4F0ECCFD5F0420EE96ED5C0EE
:1034E000D9F0D4C0D8F0D3C0D7F0D2C0D6F002DD26
:1034F000200E9EA8FED7AD6E200E9EA8FED7AD6E04
:103500000A0E9EA8FED7AD6ED26BD25142EC01F0EE
:10351000D22B006E00509EA8FED7AD6E0E0ED25D6F
:10352000F4E147C0D9F046C0D8F0DB6B640EDA6F27
:1035300075EC0CF002C0D3F001C0D2F0100EE96EB1
:1035400002C0D5F001C0D4F071DD2E0E9EA8FED7CA
:10355000AD6E47C0D9F046C0D8F0DB6B640EDA6FB1
:1035600075EC0CF000C0D2F003C0D3F00B0EE96E86
:1035700003C0D5F000C0D4F059DD200E9EA8FED7C0
:10358000AD6E200E9EA8FED7AD6E0A0E9EA8FED789
:10359000AD6E010ED26F9DDC040ED26F35DCD26BA6
:1035A000D25157EC01F0D22B006E00509EA8FED7EE
:1035B000AD6E190ED25DF4E10A0E9EA8FED7AD6E77
:1035C000040ED26F21DCD26BD25171EC01F0D22B00
:1035D000006E00509EA8FED7AD6E130ED25DF4E1D2
:1035E0000A0E9EA8FED7AD6E010ED26F72DC020EDF
:1035F000D26F4EDCD26BD25188EC01F0D22B006E30
:1036000000509EA8FED7AD6E130ED25DF4E10A0EF7
:103610009EA8FED7AD6E070ED26F04EC17F0D26BEA
:10362000D2519FEC01F0D22B006E00509EA8FED725
:10363000AD6E1D0ED25DF4E10A0E9EA8FED7AD6EF2
:10364000050ED26F46DC44D58B808A80870E946E3F
:1036500041EF25F0D26BD36B416A236A58EC14F02A
:10366000A553D8B462D0D0EC15F040500A0846E318
:10367000405244E04150030841E340500A08D8B4A6
:10368000406A415203E1D36B40C0D2F0415212E094
:10369000D3C0DDF0D2C0DCF0DF6B0A0EDE6F01ECD0
:1036A0000DF002C0D3F001C0D2F0016A4050D22721
:1036B0000150D3234152D8B48E6B412C01D08F6B73
:1036C00041500208D8B4916B41500308D8B4906BB4
:1036D000412A24EC08F0020ED46F960ED76FFCEC52
:1036E00007F0D42FFAD7D351260808E2FF0A03E1E6
:1036F000D2510F0803E2D36BD26B416A4A50D25DBC
:1037000003E14B50D35D06E0D251620806E1D3518C
:10371000040803E1010E236E03D03B50A55D05E1D3
:1037200006EC10F0A56B416A01D098D75EEF25F04A
:10373000226A0F0EA46FBCEC02F0536A526A516AFF
:103740006F0E506E2B50B40809E12C501E0806E194
:10375000536A526A47C051F046C050F02B50F208ED
:1037600020E12C5012081DE1186AF2BE188EF29E5C
:103770005FC0FAF05EC0F9F05DC0F8F05CC0F7F031
:10378000FE6BFD6BFC6B640EFB6FBBEC01F018BEB7
:10379000F28E03C053F002C052F001C051F000C0DD
:1037A00050F02B50220808E12C500B0805E1536A19
:1037B000526A516A42C050F02B50960809E12C50D1
:1037C000190806E1536A526A28C051F027C050F028
:1037D0002B50AA0808E12C501E0805E1536A526AD2
:1037E000516A44C050F02B50660808E12C50210863
:1037F00005E1536A526A516A2FC050F02B50D60827
:1038000009E12C50060806E1536A526A2EC051F0B5
:103810002DC050F02B503A0808E12C50070805E164
:10382000536A526A516A30C050F02B50460809E181
:103830002C50050806E1536A526A49C051F048C04D
:1038400050F02B50020808E12C50080805E1536A9B
:10385000526A516A32C050F02B50660808E12C5071
:10386000080805E1536A526A516A31C050F02B5082
:103870007A080BE12C50260808E17FC053F07EC087
:1038800052F07DC051F07CC050F02B50A2080FE1E7
:103890002C5017080CE126A806D0536A526A516AC8
:1038A000010E506E04D0536A526A516A506A2B500E
:1038B0008A080FE12C501B080CE1A7AD06D0536A13
:1038C000526A516A010E506E04D0536A526A516AAC
:1038D000506A4A502B5C09E14B502C5C06E1536A5C
:1038E000526A4BC051F04AC050F02B50F60844E1E8
:1038F0002C50090841E1D56BD46BD36B1DC0D2F0BD
:10390000D5C0D9F0D4C0D8F0D3C0D7F01DC0D6F000
:10391000DD6BDC6BDB6B640EDA6F81EC08F003C0EF
:103920007BF002C07AF001C079F000C078F0016A43
:10393000026A036A1E5078260150792202507A22C8
:1039400003507B227B520AE17A5208E17950080841
:103950000BE2FF0A03E17850370806E27B6A7A6AD5
:10396000040E796EB00E786E7BC053F07AC052F0C0
:1039700079C051F078C050F02B505A0865E12C50B6
:103980000A0862E1D56BD46BD36B1AC0D2F0D5C0F4
:10399000D9F0D4C0D8F0D3C0D7F01AC0D6F0DD6BC0
:1039A000DC6B270EDB6F100EDA6F81EC08F003C0C2
:1039B0007BF002C07AF001C079F000C078F0D56BDE
:1039C000D46BD36B1BC0D2F0D5C0D9F0D4C0D8F023
:1039D000D3C0D7F01BC0D6F0DD6BDC6BDB6B640EA5
:1039E000DA6F81EC08F000507826015079220250FD
:1039F0007A2203507B22016A026A036A1C507826ED
:103A00000150792202507A2203507B227B520DE131
:103A10007A50030811E2FF0A08E17950BF080CE26E
:103A2000FF0A03E17850030807E27B6A010E7A6E11
:103A3000140E796EA00E786E7BC053F07AC052F0EF
:103A400079C051F078C050F050506F0806E15152E3
:103A500004E1525202E1535202E063EC0CF024EC18
:103A600008F0020ED26F960ED76FFCEC07F0D22F43
:103A7000FAD73CEF20F0060ED66FFA0ED76FFCECAB
:103A800007F0D62FFAD7416A58EC14F0A55342E05C
:103A9000D0EC15F040500A083DE340523BE0415065
:103AA000070838E340500A08D8B4406A415205E19B
:103AB000536A526A516A40C050F0415222E053C0EA
:103AC000D9F052C0D8F051C0D7F050C0D6F0DD6B5D
:103AD000DC6BDB6B0A0EDA6F81EC08F003C053F08D
:103AE00002C052F001C051F000C050F0016A026AF9
:103AF000036A405050260150512202505222035076
:103B0000532263EC0CF024EC08F0FA0ED76FFCECB7
:103B100007F0412A3B50A55D13E1A56B536A526A39
:103B2000516A506A416A236A63EC0CF024EC08F095
:103B3000020ED66F960ED76FFCEC07F0D62FFAD791
:103B40003E50A55DD8A443D22B50B40815E12C50AB
:103B50001E0812E153520AE1525208E151504D0839
:103B600007E2FF0A03E150501F0802E2D6D704D053
:103B700051C047F050C046F02B50F20829E12C50BC
:103B8000120826E1535004080CE2FF0A08E15250E3
:103B9000F40807E2FF0A03E15150E00802E2BDD752
:103BA00017D053C0D9F052C0D8F051C0D7F050C090
:103BB000D6F0DD6BDC6BDB6B640EDA6F81EC08F04A
:103BC00003C05FF002C05EF001C05DF000C05CF0B9
:103BD0002B50220819E12C500B0816E1535210E12A
:103BE00052520EE151520CE150501E0809E353525B
:103BF00009E1525207E1515205E15050040802E335
:103C00008CD702D050C042F02B5096081EE12C50A9
:103C100019081BE1535213E1525211E151500608A9
:103C200005E2FF0A0CE15050D00809E3535209E1C4
:103C3000525207E1515205E15050270802E36DD777
:103C400004D051C028F050C027F02B50AA0810E132
:103C50002C501E080DE1535207E1525205E151521A
:103C600003E150500A0802E258D702D050C044F095
:103C70002B50660810E12C5021080DE1535207E14A
:103C8000525205E1515203E150500A0802E245D771
:103C900002D050C02FF02B50D60815E12C5006084A
:103CA00012E153520AE1525208E151504D0807E225
:103CB000FF0A03E150501F0802E22FD704D051C081
:103CC0002EF050C02DF02B503A0810E12C50070870
:103CD0000DE1535207E1525205E1515203E15050B8
:103CE0000A0802E21AD702D050C030F02B50460822
:103CF00012E12C5005080FE1535207E1525205E141
:103D0000515203E15050140802E207D704D051C0C9
:103D100049F050C048F02B50020810E12C50080820
:103D20000DE1535207E1525205E1515203E1505067
:103D3000630802E2F2D602D050C032F02B5066087F
:103D400010E12C5008080DE1535207E1525205E1F1
:103D5000515203E15050140802E2DFD602D050C0A5
:103D600031F02B507A081CE12C50260819E15352EF
:103D70000DE1525097080CE2FF0A08E151509508F6
:103D800007E2FF0A03E150507F0802E2C6D608D0DE
:103D900053C07FF052C07EF051C07DF050C07CF027
:103DA0002B50A2080EE12C5017080BE1502C06D026
:103DB000515204E1525202E1535202E0269801D0DE
:103DC00026882B508A080EE12C501B080BE1502C42
:103DD00006D0515204E1525202E1535202E0A79D33
:103DE00001D0A78D4A502B5C15E14B502C5C12E1A1
:103DF00053520AE1525208E15150260807E2FF0AE5
:103E000003E150500F0802E288D604D051C04BF0B5
:103E100050C04AF02B50F60848E12C50090845E103
:103E2000186AF2BE188EF29E53C0FAF052C0F9F032
:103E300051C0F8F050C0F7F0FE6BFD6BFC6B640EE8
:103E4000FB6FBBEC01F018BEF28E00C01DF0186ACB
:103E5000F2BE188EF29E53C0FAF052C0F9F051C073
:103E6000F8F050C0F7F0FE6BFD6BFC6B640EFB6F5F
:103E7000BBEC01F018BEF28EEFCF1EF01D501708FC
:103E800003E31E503B0801E248D61AC0D6F01BC01F
:103E9000D7F01CC0D8F020C0D9F01DC0DAF01EC089
:103EA000DBF01FC0DCF070EC04F02B505A08D8A4F3
:103EB00082D02C500A08D8A47ED0186AF2BE188E80
:103EC000F29E53C0FAF052C0F9F051C0F8F050C061
:103ED000F7F0FE6BFD6B270EFC6F100EFB6FBBEC5B
:103EE00001F018BEF28E00C01AF0186AF2BE188EE9
:103EF000F29E53C0FAF052C0F9F051C0F8F050C031
:103F0000F7F0FE6BFD6BFC6B640EFB6FBBEC01F01E
:103F100018BEF28EEFCF1CF0186AF2BE188EF29E19
:103F200053C0FAF052C0F9F051C0F8F050C0F7F0A9
:103F3000FE6BFD6B270EFC6F100EFB6FBBEC01F0F0
:103F400018BEF28EEFCF50F0ECCF51F0ECCF52F024
:103F5000ECCF53F0186AF2BE188EF29E53C0FAF0FE
:103F600052C0F9F051C0F8F050C0F7F0FE6BFD6B95
:103F7000FC6B640EFB6FBBEC01F018BEF28E00C050
:103F80001BF01A501F0806E31B500C0803E31C50DB
:103F9000630801E2C2D51AC0D6F01BC0D7F01CC01E
:103FA000D8F020C0D9F01DC0DAF01EC0DBF01FC071
:103FB000DCF070EC04F08A96040ED66FAF0ED76F6B
:103FC000FCEC07F0D62FFAD7A56B8A8601D05CD51A
:103FD00056EF20F0416A0F0EA46FBCEC02F00D0EFC
:103FE000956F9C6B24EC08F058EC14F0A553D8B4F2
:103FF00071D0D0EC15F040500A0848E3405246E03A
:104000004150030843E340500A08D8B4406A415283
:1040100004E12C6A40C02BF0906B415212E02CC09E
:10402000DDF02BC0DCF0DF6B0A0EDE6F01EC0DF073
:1040300002C02CF001C02BF0036A40502B26035025
:104040002C22412C01D0916B41500208D8B48F6BC7
:1040500041500308D8B48E6B24EC08F0412A020EBC
:10406000D26FFA0ED76FFCEC07F0D22FFAD741507F
:1040700004080CE198EF1BF050506F0807E1515213
:1040800005E1525203E1535201E11ED03B50A55DC0
:1040900018E14150030801E39DD7536A526A516AFF
:1040A000506A63EC0CF024EC08F0E5D41DEC0EF043
:1040B000020ED26F960ED76FFCEC07F0D22FFAD714
:1040C00089D73E50A55D06E106EC10F0A56B416A6C
:1040D000236A01D089D762EF25F05B520DE15A5077
:1040E0000E080FE2FF0A08E1595041080AE2FF0AF0
:1040F00003E158503F0805E25B6A5A6A596A586AF8
:10410000416A5BC0D9F05AC0D8F059C0D7F058C046
:10411000D6F0DD6BDC6BDB6B640EDA6F81EC08F0E4
:1041200003C0D5F002C0D4F001C0D3F000C0D2F07B
:10413000D5C0DDF0D4C0DCF0D3C0DBF0D2C0DAF003
:1041400090EC0AF0D5530DE1D45198080AE307E149
:10415000D351960806E303E1D2517F0802E30A0E29
:10416000956F000C3450A55D05E15B6A5A6A596A87
:104170000A0E586E3550A55D05E15B6A5A6A596AA8
:10418000140E586E3650A55D05E15B6A5A6A596A8D
:104190001E0E586E3750A55D05E15B6A5A6A596A72
:1041A000280E586E3850A55D05E15B6A5A6A596A57
:1041B000320E586E576A566A556A546A8EDF0F0E71
:1041C000966F936F946F996F9A6F976F986F926FC6
:1041D00024EC08F0A56B416A14EF21F0A68D4F6A1C
:1041E0004E6A4D6A4C6A5B6A5A6A596A586A576ADB
:1041F000566A556A546A7EEC0AF00F0E966F936FFA
:10420000946F996F9A6F976F986F926F66DF24EC37
:1042100008F0A5534EE0A551100806E2A551150877
:1042200003E3A6AD01D09ED7D0EC15F040500A08AC
:1042300040E340523EE0415005083BE340500A084D
:10424000D8B4406A415205E15B6A5A6A596A40C073
:1042500058F0415222E05BC0D9F05AC0D8F059C0A2
:10426000D7F058C0D6F0DD6BDC6BDB6B0A0EDA6F73
:1042700081EC08F003C05BF002C05AF001C059F0B5
:1042800000C058F0016A026A036A40505826015083
:10429000592202505A2203505B221FDF24EC08F0FF
:1042A000412A020ED26F960ED76FFCEC07F0D22F88
:1042B000FAD758EC14F03B50A55D03E03950A55DEA
:1042C00001E11BD082B418D05BC0D9F05AC0D8F03D
:1042D00059C0D7F058C0D6F0DD6BDC6BDB6B640ED9
:1042E000DA6F81EC08F003C05BF002C05AF001C045
:1042F00059F000C058F001D08CD779EF25F0186A3A
:10430000F2BE188EF29E5FC0FAF05EC0F9F05DC09A
:10431000F8F05CC0F7F0FE6BFD6BFC6B640EFB6F9E
:10432000BBEC01F018BEF28EEFCFD6F0ECCFD7F099
:10433000ECCFD8F0ECCFD9F0D9C0DFF0D8C0DEF0A8
:10434000D7C0DDF0D6C0DCF0ABEC08F0186AF2BEE6
:10435000188EF29E5FC0FAF05EC0F9F05DC0F8F012
:104360005CC0F7F0FE6BFD6BFC6B640EFB6FBBEC8F
:1043700001F018BEF28E03C0D9F002C0D8F001C01F
:10438000D7F000C0D6F003C0DDF002C0DCF001C001
:10439000DBF000C0DAF090EC0AF00F0E976F24EC1F
:1043A00008F083EF25F0F86AD09E0D8EEA6AE96A7C
:1043B000260EAF6EA60EAC6E900EAB6EC180C182A3
:1043C000C184C196196A1A6A1B6A1C6A1D6A1E6A30
:1043D0001F6A206A216A226A236A246A256A269053
:1043E0002692269426962698269A269C269E276A0A
:1043F000286A296A2A6A2B6A2C6A2D6A2E6A2F6A11
:10440000306A316A326A336A346A356A366A376AC0
:10441000386A396A3A6A3B6A3C6A3D6A3E6A3F6A70
:10442000406A416A426A436A446A456A466A476A20
:10443000486A496A4A6A4B6A4C6A4D6A4E6A4F6AD0
:10444000506A516A526A536A546A556A566A576A80
:10445000586A596A5A6A5B6A5C6A5D6A5E6A5F6A30
:10446000606A616A626A636A646A656A666A676AE0
:10447000686A696A6A6A6B6A6C6A6D6A6E6A6F6A90
:10448000706A716A726A736A746A756A766A776A40
:10449000786A796A7A6A7B6A7C6A7D6A7E6A7F6AF0
:1044A000806B816B826B836B846B856B866B876B98
:1044B000886B896B8A6B8B6B8C6B8D6B8E6B8F6B48
:1044C000906B916B926B936B946B956B966B976BF8
:1044D000986B996B9A6B9B6B9C6B9D6B9E6B9F6BA8
:1044E000A06BA16BA26BA36BA46BA56BA691A6930B
:1044F000A695A697A699A69BA69DA69FA791A793CA
:10450000A795A797A799A79BA79DA79FA86BA96BFE
:10451000AA6BAB6BAC6BAD6BAE6BAF6BB06BB16BD7
:10452000010EB26F040EB36F050EB46F080EB56FB7
:10453000090EB66F0C0EB76F0D0EB86F020EB96F85
:10454000030EBA6F060EBB6F070EBC6F0A0EBD6F6F
:104550000B0EBE6F0E0EBF6F0F0EC06FC16B020E43
:10456000C26F010EC36F030EC46F080EC56F0A0E33
:10457000C66F090EC76F0B0EC86F040EC96F060E0B
:10458000CA6F050ECB6F070ECC6F0C0ECD6F0E0EE3
:10459000CE6F0D0ECF6F0F0ED06FD16BA9EF07F05E
:1045A0008A96020ED26F960ED76FFCEC07F0D22FD0
:1045B000FAD78A86C80ED76FFCEC07F08A96020EEF
:1045C000D26FFA0ED76FFCEC07F0D22FFAD78A869B
:1045D000A6951AC0D4F00A0ED56F10EC08F001C0F1
:1045E00096F01AC0D4F00A0ED56F10EC08F000C097
:1045F00093F00F0E946F1BC0D4F00A0ED56F10EC21
:1046000008F001C099F01BC0D4F00A0ED56F10EC71
:1046100008F000C09AF00F0E976F1CC0D4F00A0E7D
:10462000D56F10EC08F001C098F01CC0D4F00A0E51
:10463000D56F10EC08F000C092F01DC0D4F00A0E47
:10464000D56F10EC08F001C095F01DC0D4F00A0E33
:10465000D56F10EC08F000C09CF00F0E9B6F1EC0D1
:10466000D4F00A0ED56F10EC08F001C09DF01EC00A
:10467000D4F00A0ED56F10EC08F000C08EF00F0ECB
:104680008F6F1FC0D4F00A0ED56F10EC08F001C078
:1046900091F01FC0D4F00A0ED56F10EC08F000C0E6
:1046A00090F024EC08F00E0ED26FFA0ED76FFCECEF
:1046B00007F0D22FFAD7330ED46FC4EC05F003C045
:1046C00053F002C052F001C051F000C050F03D0E56
:1046D000D46FC4EC05F003C05BF002C05AF001C017
:1046E00059F000C058F0505206E1515204E15252C4
:1046F00002E1535235E053C0D9F052C0D8F051C056
:10470000D7F050C0D6F0DD6BDC6B47C0DBF046C0A5
:10471000DAF081EC08F003C0D5F002C0D4F001C09B
:10472000D3F000C0D2F0186AF2BE188EF29E03C019
:10473000FAF002C0F9F001C0F8F000C0F7F0FE6B2B
:10474000FD6BFC6B640EFB6FBBEC01F018BEF28ED0
:1047500003C04FF002C04EF001C04DF000C04CF05D
:10476000470ED46FC4EC05F003C057F002C056F0FA
:1047700001C055F000C054F00F0EA46FBCEC02F065
:10478000A6817EEC0AF0A69163EC0CF047C0D5F050
:1047900046C0D4F096EC0CF024EC08F0505207E13F
:1047A000515205E1525203E15352D8B46DD00C0E70
:1047B000D26FFA0ED76FFCEC07F0D22FFAD7505019
:1047C0005C2651505D2252505E2253505F22A681DA
:1047D00082B458D0186AF2BE188EF29E5FC0FAF00A
:1047E0005EC0F9F05DC0F8F05CC0F7F0FE6BFD6BE9
:1047F000FC6B640EFB6FBBEC01F018BEF28E03C0C5
:104800006FF002C06EF001C06DF000C06CF0036A82
:104810004350275C006E03502858036E00C0D2F04E
:10482000D36F270ED96F100ED86F03C0DBF000C016
:10483000DAF075EC0CF002C02AF001C029F0736ABE
:10484000726A716A706A3F6A585206E1595204E10D
:104850005A5202E15B520EE0A689545206E15552CB
:1048600004E1565202E1575202E0A68B01D0A7851F
:1048700010EC0DF082A203D023EC10F05CD08A98EB
:10488000A2D002D023EC10F0040ED26FFA0ED76F34
:10489000FCEC07F0D22FFAD7A46BA451090808E367
:1048A000BCEC02F0C80ED76FFCEC07F0A42BF5D7D8
:1048B0000F0EA46FBCEC02F0A68106EC10F07FC0D6
:1048C000D9F07EC0D8F07DC0D7F07CC0D6F0DD6BCB
:1048D000DC6BDB6B640EDA6F81EC08F003505F5C1D
:1048E00015E30BE102505E5C11E307E101505D5CF2
:1048F0000DE303E15C50005C09E27C5206E17D526D
:1049000004E17E5202E17F5201E0D9D7A6A513D07F
:1049100053520FE152520DE151520BE15050070832
:1049200008E3536A526A516A506A4F6A4E6A4D6A86
:104930004C6AAFEF10F082A202D074EC10F082B497
:104940007AD0020ED26FFA0ED76FFCEC07F0D22F9E
:10495000FAD7A6B16FD04F6A4E6A4D6A4C6A536A55
:10496000526A516A506AA681080EA46FBCEC02F02C
:1049700024EC08F0040ED26FAF0ED76FFCEC07F0FA
:10498000D22FFAD78A960F0EA46FBCEC02F024EC5B
:1049900008F0C80ED76FFCEC07F08A867EEC0AF0B0
:1049A00063EC0CF047C0D5F046C0D4F096EC0CF0A8
:1049B00024EC08F0460ED76FFCEC07F08A96C80E80
:1049C000D76FFCEC07F05FC08BF05EC08AF05DC073
:1049D00089F05CC088F0A685268C505208E15152BF
:1049E00006E1525204E1535202E13FEF13F08A9A7A
:1049F0001E0ED76FFCEC07F08A86A7BD02D08A98FE
:104A000009D0060ED26FFA0ED76FFCEC07F0D22F4A
:104A1000FAD78A98A69381BEA683640ED76FFCEC62
:104A200007F0C00EF212F2869D82780E0609CA6E59
:104A3000FF0ECB6E87D0A695A6918A888A8A8A8C2B
:104A400058EC14F0A553D8B478D0A551100807E25B
:104A5000A551150804E3A6BD02D049EC15F0A553F5
:104A600005E0A551090802E3D9EC15F03950A55D20
:104A700002E149EC15F0A5510A080DE18A967AEF9A
:104A800018F08A86040ED26FFA0ED76FFCEC07F08E
:104A9000D22FFAD7A56B3D50A55D1DE10F0EA46F77
:104AA000BCEC02F0640ED76FFCEC07F00C0E956FB7
:104AB000050E9C6F24EC08F02AEF1BF0235202E055
:104AC000EAEF1FF0040ED26FFA0ED76FFCEC07F07E
:104AD000D22FFAD732D0D0EC15F0405203E0416A21
:104AE000D9EC15F03A50A55D05E12694416AEEEF48
:104AF00020F0A69D3C50A55D06E10F0EA46FBCEC16
:104B000002F07FEF21F03D50A55D07E1252C05D097
:104B100026860F0EA46FBCEC02F03B50A55D09E1A8
:104B20005B6A5A6A596A586A576A566A556A546A79
:104B3000BFD63950A55D01E188D7320ED76FFCECA6
:084B400007F08A74BCD60300E3
:020000040030CA
:0E00000000220E0E0001810000C00FE00F4034
:00000001FF
;PIC18F452
